:060000000A128A110C280F
:10000800FE00030EF1000A08F2000A128A15AE2F4C
:100018000A128A110F280A128A11FF27B000FA0162
:1000280083010A128A11692A3130F6007608FA002B
:100038000A128A1111260A128A110230F8000430B5
:10004800F700BA30F600F60B2728F70B2728F80B2D
:10005800272800003230F6007608FA000A128A11C2
:1000680011260A128A110230F8000430F700BA305B
:10007800F600F60B3D28F70B3D28F80B3D2800004D
:100088003330F6007608FA000A128A1111260A128D
:100098008A110230F8000430F700BA30F600F60B87
:1000A8005328F70B5328F80B532800003430F60078
:1000B8007608FA000A128A1111260A128A110230E9
:1000C800F8000430F700BA30F600F60B6928F70B91
:1000D8006928F80B692800003530F6007608FA0020
:1000E8000A128A1111260A128A110230F800043005
:1000F800F700BA30F600F60B7F28F70B7F28F80BCD
:100108007F2800003630F6007608FA000A128A11B5
:1001180011260A128A110230F8000430F700BA30AA
:10012800F600F60B9528F70B9528F80B9528000094
:100138003730F6007608FA000A128A1111260A12D8
:100148008A110230F8000430F700BA30F600F60BD6
:10015800AB28F70BAB28F80BAB2800003830F600BB
:100168007608FA000A128A1111260A128A11023038
:10017800F8000430F700BA30F600F60BC128F70B88
:10018800C128F80BC12800005030F6007608FA00A4
:100198000A128A1111260A128A110230F800043054
:1001A800F700BA30F600F60BD728F70BD728F80B6C
:1001B800D72800005A30F6007608FA000A128A1189
:1001C80011260A128A110230F8000430F700BA30FA
:1001D800F600F60BED28F70BED28F80BED280000DC
:1001E80006300A128A11B4260A128A1101300A123C
:1001F8008A11B4260A128A1100300A128A11B4260A
:100208000A128A1103300A128A11B4260A128A11B4
:1002180002300A128A11B4260A128A110330F80031
:100228000830F7007730F600F60B1829F70B182975
:10023800F80B182906300A128A11A6220A128A1106
:1002480001300A128A11A6220A128A1100300A12F3
:100258008A11A6220A128A1103300A128A11A622CA
:100268000A128A1102300A128A11A6220A128A1167
:100278000230F8000430F700BA30F600F60B4229D5
:10028800F70B4229F80B422900000800482A0030E1
:100298000A128A11B4260A128A110A128A15982794
:1002A8000A128A11F601F60A01300A128A11002789
:1002B8000A128A11F730F8008330F9000A128A11FD
:1002C80090270A128A110B3083120313A7002630D5
:1002D800A6005D30A500A50B6F29A60B6F29A70BFB
:1002E8006F290A128A159827080001300A128A1104
:1002F800B4260A128A110A128A1598270A128A1134
:10030800F601F60A01300A128A1100270A128A1128
:100318000630F8008430612903300A128A11B426A5
:100328000A128A110A128A1598270A128A11F601E6
:10033800F60A01300A128A1100270A128A11D830E7
:10034800F8008330612902300A128A11B4260A1291
:100358008A110A128A1598270A128A11F601F60AD2
:1003680001300A128A1100270A128A11A730F800F0
:100378008330612906300A128A11B4260A128A11BA
:100388000A128A1598270A128A11F601F60A01300C
:100398000A128A1100270A128A11C830F80083301D
:1003A800612900300A128A11A6220A128A110A1239
:1003B8008A1598270A128A11F601F60A01300A12DC
:1003C8008A1100270A128A11B830F800833061298F
:1003D80001300A128A11A6220A128A110A128A15F3
:1003E80098270A128A11F601F60A01300A128A11B0
:1003F80000270A128A11E830F80083306129033097
:100408000A128A11A6220A128A110A128A15982734
:100418000A128A11F601F60A01300A128A11002717
:100428000A128A119630F8008330612902300A12C4
:100438008A11A6220A128A110A128A1598270A1204
:100448008A11F601F60A01300A128A1100270A12E7
:100458008A117330F8008330612906300A128A1134
:10046800A6220A128A110A128A1598270A128A11D4
:10047800F601F60A01300A128A1100270A128A11B7
:100488008530F800833061297A08313A03194B29FD
:10049800033A0319D529013A03197929073A0319A7
:1004A800EC29013A03199029033A0319032A013A5E
:1004B8000319A7290F3A03191A2A683A0319BE29FA
:1004C8000A3A0319312A682A08000A128A11AA2549
:1004D8000A128A11F601F60A01300A128A11002757
:1004E8000A128A110A128A15BA270A128A11831265
:1004F80003133003031D882A0A128A15CA270A1211
:100508008A1183120313B0010A128A158D270A1261
:100518008A11313A031D962A00300A128A11B4262C
:100528000A128A110A128A114A210A128A110A1217
:100538008A111C240A128A110A128A11F0240A123A
:100548008A117B2AF300C82A8312031305100800B6
:1005580083120313091008008312031308100800FC
:10056800831203138711080083120313051208006E
:100578008312031385120800831203130610080060
:1005880083120313861008007308003A0319A82A77
:10059800013A0319AC2A033A0319B02A013A03199C
:1005A800B42A073A0319B82A013A0319BC2A033AAC
:1005B8000319C02A013A0319C42AE22A0800FF1BBA
:1005C800ED2A83137F1883170008840A0319FF0A8A
:1005D80008007F087F398A000408840A0319FF0A83
:1005E800820001300A128A11E9270A128A110C3096
:1005F8000A128A11E9270800203463346F346E34F4
:100608006E34653463347434203479346F3475341B
:100618007234203464346534763469346334653430
:1006280020347534733469346E346734203462345A
:100638006C347534653474346F346F34743468349E
:1006480020340034203474346F34203468346334F4
:1006580030343534203461346E34643420346534B5
:100668006E346A346F347934203463346F346E34C2
:10067800743472346F346C346C3469346E34673467
:100688002E342E342E3400342034203420342034B8
:1006980020342034203420342034203420342034B2
:1006A80020342034203420342034203420342034A2
:1006B80020342034203400345F345F3449344E34DD
:1006C80053345434523455344334543449344F3405
:1006D8004E3453345F345F3420342034003459347A
:1006E80045344C344C344F34573420344C3445342E
:1006F800443420344F34463446342E342E342E3489
:1007080000345734483449345434453420344C3454
:100718004534443420344F34463446342E342E3451
:100728002E34003447345234453445344E34203462
:100738004C344534443420344F34463446342E3413
:100748002E342E340034593445344C344C344F3420
:10075800573420344C344534443420344F344E34E8
:100768002E342E342E34003442344C34553445342F
:1007780020344C344534443420344F3446344634E1
:100788002E342E342E3400345734483449345434FB
:10079800453420344C344534443420344F344E34BA
:1007A8002E342E342E3400344734523445344534F4
:1007B8004E3420344C344534443420344F344E3491
:1007C8002E342E342E3400345234453444342034FC
:1007D8004C344534443420344F34463446342E3473
:1007E8002E342E34003442344C34553445342034BD
:1007F8004C344534443420344F344E342E342E3463
:100808002E34003452344534443420344C34453486
:10081800443420344F344E342E342E342E340034A5
:1008280020345234653461346434793420340034EB
:100838000A128A1598270A128A11F601F60A013057
:100848000A128A1100270A128A111430F80084301B
:10085800F9000A128A1190270A128A11A801A9011F
:100868000A128A11F5220A128A110230831203131E
:10087800A7008630A6009830A500A50B412CA60B32
:10088800412CA70B412C0000013083120313A80749
:100898000318A90A0030A9072908803AFF00803008
:1008A8007F02031D592C09302802031C342C8312A3
:1008B8000313AA01AB010A128A15A3270A128A1187
:1008C800023083120313A7008630A6009830A500D3
:1008D800A50B6C2CA60B6C2CA70B6C2C0000013004
:1008E80083120313AA070318AB0A0030AB072B08BF
:1008F800803AFF0080307F02031D842C09302A02D1
:10090800031C5F2C0A128A1598270A128A1148308C
:10091800F8008330F9000A128A1190270A128A1106
:10092800F601F60A02300A128A1100270A128A1101
:100938001430F8008430F9000A128A1190270A123C
:100948008A11AC01AD010A128A11F5220A128A1124
:10095800D03083120313A600C930A500A50BB22C12
:10096800A60BB22C013083120313AC070318AD0A8F
:100978000030AD072D08803AFF0080307F02031D4C
:10098800C72C09302C02031CA72C83120313AE01B9
:10099800AF010A128A15A3270A128A11D0308312CE
:1009A8000313A600C930A500A50BD82CA60BD82C7C
:1009B800013083120313AE070318AF0A0030AF07E4
:1009C8002F08803AFF0080307F02031DED2C09308C
:1009D8002E0203180800CD2C0A128A1598270A122D
:1009E8008A11F601F60A01300A128A1100270A1242
:1009F8008A116030F8008330F9000A128A119027B2
:100A08000A128A110B3083120313A7002630A6009E
:100A18005D30A500A50B0E2DA60B0E2DA70B0E2DD8
:100A28000A128A1598270A128A11F601F60A013065
:100A38000A128A1100270A128A110030F80083303E
:100A4800F9000A128A1190270A128A1106308312B5
:100A58000313A7001330A600AD30A500A50B322D57
:100A6800A60B322DA70B322D83120313A801A9015F
:100A78000A128A15A3270A128A1106308312031351
:100A8800A7001330A600AD30A500A50B492DA60B75
:100A9800492DA70B492D013083120313A80703180A
:100AA800A90A0030A9072908803AFF0080307F0290
:100AB800031D602D14302802031C3C2D0A128A15D0
:100AC80098270A128A112630F8008330F9000A1292
:100AD8008A1190270A128A11093083120313A7007A
:100AE8001E30A600E330A500A50B782DA60B782DA7
:100AF800A70B782D7F2D83120313AA01AB010A12CD
:100B08008A15A3270A128A11063083120313A70035
:100B18001330A600AD30A500A50B902DA60B902D87
:100B2800A70B902D013083120313AA070318AB0AF1
:100B38000030AB072B08803AFF0080307F02031D8E
:100B4800A72D14302A0203180800832D8316860166
:100B58000710071100300A128A11CF270A128A11CA
:100B68004E30F700EB30F600F60BB82DF70BB82D2A
:100B7800C730F600BF2DF60BBE2DC22DC32D033096
:100B88000A128A11E9270A128A110D30F700FB3080
:100B9800F600F60BCD2DF70BCD2DD22D03300A1212
:100BA8008A11E9270A128A116330F600F60BDA2D4A
:100BB800DD2D03300A128A11E9270A128A11023040
:100BC8000A128A11E9270A128A1102300A128A11B6
:100BD800E9270A128A1108300A128A11E9270A122B
:100BE8008A1100300A128A11E9270A128A110C3078
:100BF8000A128A11E9270A128A1100300A128A1188
:100C0800E9270A128A1106300A128A11E9270A12FC
:100C18008A110A128A1598270800442E00300A12F1
:100C28008A11B426080001300A128A11B426080075
:100C380003300A128A11B426080002300A128A11F7
:100C4800B426080006300A128A11B42608000030BB
:100C58000A128A11A622080001300A128A11A62255
:100C6800080003300A128A11A622080002300A126C
:100C78008A11A622080006300A128A11A622080044
:100C88007A08313A0319122E033A03192B2E013A26
:100C98000319172E073A0319302E013A03191C2E8F
:100CA800033A0319352E013A0319212E0F3A031975
:100CB8003A2E683A0319262E0A3A03193F2E642E53
:100CC8000800F300992E83160313051006309F00C1
:100CD80083120510080083160313091083120910E4
:100CE80008008316031308108312081008008316DF
:100CF8000313871183128711080083160313051243
:100D080083120512080083160313851283128512B5
:100D180008008316031306108312061008008316B2
:100D2800031386108312861008007308003A03190B
:100D3800672E013A03196F2E033A0319752E013AEB
:100D480003197B2E073A0319812E013A0319872EBE
:100D5800033A03198D2E013A0319932EB32E080076
:100D6800F500E52E0130F300003083120313051857
:100D78000130013EC12E0310F30DFF3E031DBF2EAF
:100D88007308F40074088504080083120313091417
:100D9800080083120313081408008312031387152D
:100DA800080083120313051608008312031385161F
:100DB8000800831203130614080083120313861411
:100DC80008007508003A0319B62E013A0319C92E0E
:100DD800033A0319CD2E013A0319D12E073A031904
:100DE800D52E013A0319D92E033A0319DD2E013AFB
:100DF8000319E12EFF2E0800A0002003031D262F53
:100E080076087F3EF7007708A3002308F700043030
:100E18000310F70CFF3E031D0C2F7708F800780825
:100E2800A20023080F39F7007708A10022080A1248
:100E38008A11E9270A128A1121080A128A11E92758
:100E48000A128A1102302006031D08007608BF3EE8
:100E5800F7007708A3002308F70004300310F70C05
:100E6800FF3E031D322F7708F8007808A2002308F8
:100E78000F39F7007708A10022080A128A11E9271A
:100E88000A128A1121080A128A11E9270800F700B4
:100E980077080F39F4007408F5007708F039F40082
:100EA8007408F60007147608F40004300310F40CF4
:100EB800FF3E031D5A2F74080A128A11CF270A12FF
:100EC8008A110715C730F400692FF40B682F6C2FAF
:100ED8006D2F831203130711C730F400732FF40B1F
:100EE800722F762F772F75080A128A11CF270A12C8
:100EF8008A110715C730F400812FF40B802F842F37
:100F0800852F831203130711C730F4008B2FF40BBE
:100F18008A2F8E2F8F2F0800A301A401230878079A
:100F2800A1007908A0000318A00AA31BA00383123C
:100F380003132008A2002208FF00210884000A12D7
:100F48008A11E3220A128A11003A031908002308B9
:100F58007807A1007908A0000318A00AA31BA00322
:100F6800831203132008A2002208FF00210884002E
:100F78000A128A11E3220A128A110A128A114B27CD
:100F88000A128A11013083120313A3070318A40A53
:100F98000030A407922FF300731CD62F831203137B
:100FA8000616D92F831203130612F31CDD2F86169B
:100FB800DE2F8612731DE22F0617E32F0613F31D8B
:100FC800E72F8617080086130800F500831203131D
:100FD800071075080A128A11CF270A128A110715F5
:100FE800C730F400F72FF40BF62FFA2FFB2F8312DC
:080FF800031307110800013486
:101F1A008C1E8D2F1A080800831203130C0EF00072
:101F2A00700C0139080000300A128A11E9270A12D6
:101F3A008A1501300A128A11E927080001300A12AB
:101F4A008A11E9270A128A1508300A128A11E92722
:101F5A0008000A128A1591270A128A1572088A003D
:101F6A00710E8300FE0E7E0E09008316181533309B
:101F7A0099001812831298178316071787178C1659
:101F8A000B178B1783121816080000300A128A11D1
:101F9A0065260A128A1501300A128A1165260A1262
:101FAA008A1503300A128A1165260A128A15023026
:101FBA000A128A1165260A128A1506300A128A112D
:101FCA0065260A128A15093083120313A2001E30ED
:101FDA00A100E330A000A00BF02FA10BF02FA20B61
:101FEA00F02FF72F0A128A1598270A128A150A1251
:061FFA008A111820080006
:02400E00723FFF
:00000001FF
